:100000006AC079C078C077C076C075C074C073C04C
:1000100072C071C070C06FC06EC06DC06CC06BC06C
:100020006AC069C068C067C066C065C064C063C09C
:1000300083C061C0BDC096C095C094C093C092C03B
:1000400091C090C0B5C08EC08DC08CC08BC08AC01E
:1000500089C088C0B7C086C085C084C083C082C044
:1000600081C080C07FC07EC07DC07CC07BC07AC0A4
:1000700079C078C0A7C076C075C074C073C072C0A4
:1000800071C070C06FC06EC06DC06CC06BC06AC004
:1000900069C068C0AEC066C065C064C063C062C0ED
:1000A00061C060C0AAC05EC05DC05CC05BC05AC019
:1000B00059C058C057C056C055C054C053C052C094
:1000C00051C050C0A8C04EC04DC04CC04BC04AC06B
:1000D00049C048C05EC011241FBECFEFD2E0DEBFD2
:1000E000CDBF21E0A0E0B1E001C01D92AC36B20767
:1000F000E1F731D177C184CF42E065E171E080E979
:10010000BAD08FE99FE00197F1F700C00000E5E168
:10011000F1E0808190E0982F88272181822B880F41
:10012000892F881F990B919590930201809301016B
:100130004AE063E071E023C11F920F920FB60F9265
:1001400011242F933F938F939F93AF93BF93EF937C
:10015000FF93E091B9008E2F90E0FC013897E135D4
:10016000F105A0F08091B9008093170184E080939D
:10017000BC00FF91EF91BF91AF919F918F913F9103
:100180002F910F900FBE0F901F901895E65EFF4FB6
:10019000099480910001E0911801F0911901E80F94
:1001A000F11D8091BB00808384E98093BC00E1CF86
:1001B00080911A018093BB001092000185E8809322
:1001C000BC00D7CF8091000190911B01891760F787
:1001D000E0911801F091190191E0980F90930001BE
:1001E000E80FF11D80818093BB0085E88093BC00FF
:1001F000C0CF85EA8093BC00BCCF209100018091E4
:100200001B0130E090E0019728173907DCF485ECFA
:100210008093BC00AECFE0911801F091190180915C
:10022000000121E0280F20930001E80FF11D8091CB
:10023000BB00808380911B0130E090E0019728177C
:1002400039072CF385E88093BC0093CF8091BC00E4
:10025000817008959091BC0090FDFCCF8E7F8093BB
:100260001A01709319016093180140931B0185EAEC
:100270008093BC0008959091BC0090FDFCCF8160FC
:1002800080931A01709319016093180140931B0128
:1002900085EA8093BC0008958FEF8093BB00109295
:1002A000B90082E08093B80008959091C00095FF56
:1002B000FCCF8093C6008091C00085FFFCCF0895DD
:1002C000FC012081222371F031969091C00095FFAE
:1002D000FCCF2093C6009091C00095FFFCCF2191E8
:1002E0002111F3CF08959C01C901F90144914423E0
:1002F00099F02F5F3F4FFC0184919091C00095FFD2
:10030000FCCF8093C6009091C00095FFFCCFC9013F
:10031000F90144914111EDCF0895E1ECF0E08081C5
:1003200088618083E2ECF0E08081866080831092B7
:10033000C50087E68093C400089580E89EE302C06C
:10034000019739F02091C00027FFFACF8091C600B5
:10035000089580E00895A0DFE0DF1092130141E0EE
:1003600063E171E080E976DF7894E7DF8823E9F3E1
:10037000C3DE83E091E0A4DF80E097DFF6CFBB2708
:100380004A3031F4992322F4BDE2909581959F4F34
:1003900001C0BB27FB015527AA27880F991FAA1F59
:1003A000A41710F0A41B83955051B9F7A05DAA3390
:1003B00008F0A95DA193009779F7B111B19311925B
:1003C000CB0100C0DC01FC01672F71917723E1F7BD
:1003D000329704C07C916D9370836291AE17BF0712
:0803E000C8F30895F894FFCF63
:00000001FF
