:100000000C94AC000C94CB000C94CB000C94CB0063
:100010000C94CB000C94CB000C94CB000C94CB0034
:100020000C94CA050C94CB000C94CB000C94CB0020
:100030000C9480050C94CB000C94CB000C94CB005A
:100040000C94D9050C94CB000C940E050C94CB00A9
:100050000C94CB000C94CB000C94CB000C94CB00F4
:100060000C94CB000C94CB000C94CB000C94CB00E4
:100070000C94CB000C94CB000C94CB000C94CB00D4
:100080000C94CB000C9488090C94CB00C304C304DB
:10009000C304C304C304C304C804C804CB04CB040E
:1000A000E004D104DD04D404D704DA04CE04C5048A
:1000B000C504C504C504C909A009A009A009A0096F
:1000C000A009A009A009C909A009A009A009A009BF
:1000D000A009A009A009D309A009A009A009A009A5
:1000E000A009A009A009A009A009A009A009A009C8
:1000F000A009A009A009D309A009A009A009A00985
:10010000A009A009A009A009A009A009A009A009A7
:10011000A009A009A009EA09A009A009A009A0094D
:10012000A009A009A009EE09A009A009A009A00939
:10013000A009A009A009A009A009A009A009A00977
:10014000A009A009A009FC09A009A009A009A0090B
:10015000A009A009A009BA0911241FBECFEFD0E160
:10016000DEBFCDBF11E0A0E0B1E0ECE8FBE100E0D4
:100170000BBF02C007900D92A631B107D9F722E05C
:10018000A6E1B1E001C01D92A339B207E1F70E94D8
:10019000450C0C94C40D0C940000EFE2F1E0A0EAD1
:1001A000B1E040E050E099B320813181220F331F4C
:1001B000306E892F90E0042E02C0959587950A94A1
:1001C000E2F781709927822B932B8193919381156C
:1001D000904F41F01D924F5F5F4F4830510519F726
:1001E00080E00895FA01E056FE4F81E08083089593
:1001F000FF920F931F93CF93DF93282F8A013DEC3B
:10020000639F512D1124569556955695862F4AE099
:10021000549F80191124582FE0E2F1E0838389E292
:10022000F82E6F9D812D112482958F7044E6849F56
:1002300060191124862F90E0851B9109CAE0D0E057
:10024000BE010E94DE0C6283239F512D112456951E
:1002500056955695822F9AE0599F80191124582F50
:1002600081832F9D812D112482958F70849F201969
:100270001124822F90E0851B9109BE010E94DE0CA3
:10028000608380911B01839F212D11242695269543
:100290002695582F9AE0299F5019112457838F9D36
:1002A000912D112492959F70949F8019112490E0B4
:1002B000851B9109BE010E94DE0C668380911C01A2
:1002C000839F312D1124369536953695282F9AE047
:1002D000399F2019112425838F9DF12C1124F2942C
:1002E0009FE0F922F49E8019112490E0821B91096D
:1002F000BE010E94DE0C64839801ADECBCEC0E9450
:100300001A0DEC01D695C795D695C795D695C79584
:100310009E010E941A0D8C0116950795169507955A
:1003200016950795C801880F991F000F111F000F20
:10033000111F000F111F080F191FCE01801B910BF9
:100340008C0183873695279536952795ABE7B4E1E1
:100350000E941A0D96958795489F9001499F300DF0
:100360001124AE01421B530B9A01201B310BADEC43
:10037000BCEC0E941A0DAC015695479556954795D1
:1003800056954795428726EF2403A00111249E012C
:10039000369527953695279536952795A5ECB0E2A5
:1003A0000E941A0D929582958F7089279F708927D8
:1003B00068EE73E0869F9001879F300D969F300D09
:1003C0001124CE01821B930B9C01201B310B240FA7
:1003D000351F3695279536952795ABE7B4E10E94F2
:1003E0001A0D969587958187C01BD10B9E01240F0E
:1003F000351F44E6849F201931091124369527952D
:100400003695279536952795A5ECB0E20E941A0DF2
:10041000929582958F7089279F7089278087DF91B9
:10042000CF911F910F91FF90089580910201807EDE
:10043000803409F496C0803809F449C0803219F03C
:1004400080E688BB0895E0912701F0E0E85AFE4F6E
:1004500090819BBB18BAEFE1F3E03197F1F700C050
:100460000000E0912601F0E0E85AFE4F90819BBB2E
:1004700090E198BBEFE1F3E03197F1F700C00000A5
:1004800090911801913009F4DFC008F4BDC092309A
:1004900009F4DEC0933049F498EF9BBB88BBEFE1D1
:1004A000F3E03197F1F700C00000E0912501F0E0A2
:1004B000E85AFE4F80818BBB80E388BB8FE193E0DD
:1004C0000197F1F700C00000E091240144C0E091E1
:1004D0002301F0E0E85AFE4F80818BBB18BA8FE110
:1004E00093E00197F1F700C00000E0912201F0E0F5
:1004F000E85AFE4F80818BBB80E188BBEFE1F3E0DF
:100500003197F1F700C0000080911801813009F4A3
:10051000A1C008F48EC0823009F49EC0833051F42B
:1005200088EF8BBB80E288BBEFE1F3E03197F1F716
:1005300000C00000E0912101F0E0E85AFE4F808108
:100540008BBB80E388BB8FE193E00197F1F700C09C
:100550000000E0912001F0E0E85AFE4F80818BBB63
:1005600048C0E0912B01F0E0E85AFE4F80818BBB40
:1005700018BA8FE193E00197F1F700C00000E09115
:100580002A01F0E0E85AFE4F80818BBBDF9880E1C2
:1005900088BBEFE1F3E03197F1F700C000008091F4
:1005A0001801813009F452C0C8F1823009F456C0F4
:1005B000833051F48BEF8BBB80E288BBEFE1F3E03B
:1005C0003197F1F700C00000E0912901F0E0E85A0E
:1005D000FE4F80818BBB80E388BB8FE193E0019766
:1005E000F1F700C00000E0912801E111B4CF8FEFD6
:1005F0008BBB80E488BBEFE1F3E03197F1F700C0FB
:10060000000080E688BB08959CEF9BBB88BB8FE110
:1006100093E00197F1F700C0000047CF8FEF8BBB4D
:1006200080E288BB8FE193E00197F1F700C0000002
:10063000CBCF8FEF8BBB80E288BB8FE193E001973C
:10064000F1F700C0000076CF9CEF27CF8FEFB3CF3C
:1006500098EFDBCF8CEF65CF8BEFECCF8BEFDFCF5D
:1006600087B3876087BBC09A8A9A82B1806C82B94F
:10067000E1E6F0E0808188608083E2E6F0E080815E
:10068000877F8083C19A8DB180658DB9709A0895F6
:100690001F9A1E981E9A1F981FB8779BFECF8FB186
:1006A000809508951F98179A1A9A8FE193E0019701
:1006B000F1F700C000001A9890EA9A95F1F71798A0
:1006C00008950E9448038093D701909141018917B2
:1006D00099F1282F23702230B9F4937009F042C0A9
:1006E0002091000130910101245131092A3692E212
:1006F000390710F426E23AE2309301012093000119
:100700009091020191FD3EC0982F9C709830A1F409
:10071000909141019C7099F420918600309187005E
:100720002130304E48F42091860030918700305FB0
:1007300030938700209386008093410108959C3078
:10074000D9F7209186003091870021153046A0F31B
:10075000209186003091870030513093870020939C
:100760008600EACF933081F620910001309101019B
:100770002C5E3F4F27329AE2390708F4BDCF2AE6B4
:1007800032E2BACF0E94A50A8091D701BDCF0E9464
:10079000CD00882329F18091A701813011F180914A
:1007A00002019091A601913031F19091A501913013
:1007B00051F19091A401913071F19091A301913088
:1007C00009F461C09091A201913009F451C0807E7A
:1007D000803409F470C0803809F45BC08032B1F114
:1007E0000895809102018F79806880930201909131
:1007F000A6019130D1F68F758064809302019091AB
:10080000A5019130B1F68F738062809302019091BF
:10081000A401913091F690E1892780930201209103
:10082000180192E0922790931801982F907184FFFD
:1008300053C0903111F660E081E00E940D0783E023
:1008400091E00E94B60780910201B7CF8091A0018C
:10085000813009F45BC08091A101813009F680915B
:100860001C018F5F883109F442C080931C010895F8
:1008700092E089278093020181FD3FC00E94000B16
:1008800080910201A4CF82FF9DCF886080930201F6
:1008900099CF8091A001813009F440C08091A101DD
:1008A000813009F09DCF80911F018F5F883111F158
:1008B00080931F0108958091A0018130B9F180914A
:1008C000A101813009F08CCF86EE98E2909301016E
:1008D000809300010C94A50A60E081E00E940D075E
:1008E00089E091E00E94B6078091020166CF1092E4
:1008F0001C01089510921F0108950E9452030E9446
:10090000C90B0E94A50A8091020161CF80911B0151
:100910008F5F8C33A1F080931B019DCF80911E01CE
:100920008F5F8C3379F080931E01B8CF86E899E20F
:1009300090930101809300010E94A50AC0CF1092FC
:100940001B0189CF10921E01A9CF369A349BFECF8E
:10095000349A24B135B136952795ABE7B4E10E94BE
:100960001A0D9695879590934301809342010895BF
:10097000E0914201F0914301E531F10528F4EA5B91
:10098000FF4F0C94110D13BC08958FEF83BD089594
:1009900086E083BD08958FE083BD08958FED83BD0C
:1009A00008958FE383BD08958FE783BD08958FE990
:1009B00083BD08958FEB83BD08958FE583BD0895B2
:1009C0008FE183BD089562E082E00E940D0742E05E
:1009D0006BE072E080E90E942C0A0E9415020E94DE
:1009E0001502EBE0F2E0808190E0982F88272181CA
:1009F000822B880F892F881F990B919590938D01D9
:100A000080938C014AE060E971E00E945F0D80E90B
:100A100091E00C94B60782E70C94460A1F920F925D
:100A20000FB60F9211240BB60F928F939F93EF93F3
:100A3000FF938CB18093D801E0912E0191E09E0F3D
:100A400090932E01F0E0EC5BFE4F8083811109C092
:100A500081E08093570180E28083818382831092BA
:100A60002E01FF91EF919F918F910F900BBE0F90F0
:100A70000FBE0F901F90189587B7816087BF83B70F
:100A8000816083BF80B7886080BF08958B9A8FB5DF
:100A90008FBD8EB58B608EBD10927A0080E590E0A0
:100AA0009BBD8ABD87B78F7E87BF089587B780615A
:100AB00087BF089587B78F7E87BF089585B58967FB
:100AC00085BD8FEF83BD0895139AEBE8F0E0808138
:100AD000826C8083EAE8F0E0808189618083ECE8C1
:100AE000F0E08081808380E090EA9093870080939B
:100AF000860080E090EF90938100809380000895BD
:100B00001F920F920FB60F9211242F933F938F9342
:100B10009F931FBC80912D018F5F80932D0188E0F2
:100B200082BB80912D0180FD03C012BA80912D01FE
:100B300099E2899F912D112492959F70382F24E678
:100B4000929F30191124311104C020E830E03BBDE0
:100B50002ABD91E0883C08F490E028E3929F800D44
:100B60001124811104C080E590E09BBD8ABD9F9156
:100B70008F913F912F910F900FBE0F901F9018955E
:100B8000129A139A1A9A8AB7806C8ABF89B78068BA
:100B900089BF08951F920F920FB60F9211248F9361
:100BA00081E0809383028F910F900FBE0F901F9072
:100BB00018951F920F920FB60F9211240BB60F9239
:100BC0002F933F934F935F936F937F938F939F9355
:100BD000AF93BF93CF93EF93FF93C0912C01CF5F5F
:100BE000C0932C010E94A5040E94B8048C2F8F731F
:100BF00031F49091180181E0892780931801CF7713
:100C0000A1F0FF91EF91CF91BF91AF919F918F9103
:100C10007F916F915F914F913F912F910F900BBEFC
:100C20000F900FBE0F901F90189510922C0180917D
:100C30001D018F5F80931D010E94E30482E70E94E3
:100C4000460A80911D018C3309F45CC080911E011D
:100C50008C3309F44FC080911F01883109F447C0DB
:100C60008091020184FD26C0837F8093020187B7B3
:100C70008F7E87BF8091020183FF0BC09091190185
:100C80009F5F909319018B7F8093020187B78F7EBE
:100C900087BF809119018A3009F0B3CF809102019A
:100CA000877F8460809302011092190187B7806169
:100CB00087BFA7CF20911F0190911C012913DCCF82
:100CC00020911E0190911B012913D6CF20911D0167
:100CD00090911A012913D0CF84608093020187B7C5
:100CE000806187BF8091020184FDC6CFBDCF109285
:100CF0001F01B6CF10921E0180911F018F5F80935C
:100D00001F01ABCF10921D0180911E018F5F809358
:100D10001E019ECF91E0811101C090E09FB9779BA9
:100D2000FECF6FB9779BFECF809162008860809381
:100D3000620080916200877F809362008FE99FE06C
:100D40000197F1F700C00000089521E02FB9779BCB
:100D5000FECF20913F01FC01E20FF11D80818FB990
:100D6000779BFECF809162008860809362008091C3
:100D70006200877F8093620080913F018F5F809344
:100D80003F01803181F0803209F0089585ED8A9528
:100D9000F1F700004CED55E062E080E00E948A0629
:100DA00010923F01089585ED8A95F1F700004CED12
:100DB00055E060EC80E00E948A0680913F01E3CF1D
:100DC000EF92FF920F931F93CF93DF931F92CDB7B4
:100DD000DEB7182F660F660F660F605C48EE53E0B3
:100DE00080E099830E948A06E12E9981F92E87017D
:100DF000085F1F4FF70161917F0144E650E081E0F9
:100E00000E948A06E016F106A9F70F90DF91CF91B4
:100E10001F910F91FF90EF90089590E4899F600DCE
:100E20001124605C48EE53E080E00C948A06CF9376
:100E3000882309F43DC0C82F8436A8F48A30F8F41A
:100E40008DECC89F812D11248695869586956C2FF3
:100E50002AE0829F60191124605D44E650E081E041
:100E6000CF910C948A0669E2869F612D11246295C8
:100E70006F70605D44E650E081E00E948A0689E27E
:100E8000C89F812D112482958F709C2F24E6829F0C
:100E9000901911246DEC969F612D1124669566952D
:100EA0006695605D44E650E081E00E948A06C8CF06
:100EB00044E650E060E381E0CF910C948A06CF9342
:100EC00087FD03C0CF910C941707C82F44E650E06C
:100ED0006DE281E00E948A068C2F8195CF910C945F
:100EE000170748EE53E06EE080E00C948A0648EE67
:100EF00053E06CE080E00C948A0648EE53E06EE12B
:100F000080E00C948A0648EE53E068E180E00C949F
:100F10008A06E2E6F0E08081886080838081877FB6
:100F20008083089540ED57E061E080E00C948A06EC
:100F30004CED55E062E080E00C948A064CED55E003
:100F400060EC80E00C948A06CF93C0E144E650E068
:100F500060E281E00E948A06C150C1F7CF910895F6
:100F600044E650E0682F81E00C948A060F931F93AB
:100F7000CF938C0140E050E0C0E0F801E40FF51F92
:100F800044E650E0608181E00E948A06CF5F4C2FEA
:100F900050E0F80101900020E9F79F01201B310B80
:100FA000225031092417350740F7CF911F910F9137
:100FB00008958FEF99EF0197F1F700C0000088E0E6
:100FC0008093610048E55BE160E380E00E948A066F
:100FD00048E55BE160E380E00E948A0648E55BE16A
:100FE00060E380E00E948A0648E853E168E380E01D
:100FF0000E948A0648E853E168E080E00E948A0681
:1010000048E853E161E080E00E948A0648E853E145
:1010100066E080E00E948A0645E050E06CE080E0F7
:101020000C948A068F929F92AF92BF92CF92DF92DA
:10103000EF92FF920F931F93CF93DF93CDB7DEB75D
:1010400069970FB6F894DEBF0FBECDBFF42E122FF6
:10105000002359F04B015C018824B7FC8394992448
:10106000AA24BB24082D97FD8DC0112309F482C04A
:101070009E012F5F3F4F6901590188248A94810E98
:10108000912C3FEF831A930A8C0C9D1C2AE030E0D0
:1010900040E050E00E94F20CE62F2A8B3B8B4C8BF9
:1010A0005D8B6A897B898C899D8920E32E0FF501F0
:1010B00021935F01E815F90549F7BB24B394B10EFC
:1010C000F601E10FF11D2EE220832AE030E040E03E
:1010D00050E00E94F20CE62F2A8B3B8B4C8B5D8BF1
:1010E0006E8B7F8B888F998F6A897B898C899D898C
:1010F00011E01B0DD601AB0DB11DE05DEC93B12EDF
:10110000611571058105910501F7FF2061F0E1107E
:1011100037C080E21F1538F4F601E10FF11D80831E
:101120001F5F1F11F9CF002331F0F601E10FF11D10
:101130008DE280831F5F1150F601E10FF11D48EE33
:1011400053E0608181E00E948A061111F4CF699614
:101150000FB6F894DEBF0FBECDBFDF91CF911F91C8
:101160000F91FF90EF90DF90CF90BF90AF909F9046
:101170008F900895B12C9E012F5F3F4F6901A5CF3D
:1011800080E3C8CF90958095709561957F4F8F4F84
:101190009F4F6BCF5F926F927F928F929F92AF9291
:1011A000BF92CF92DF92EF92FF920F931F93CF9354
:1011B000DF93CDB7DEB761970FB6F894DEBF0FBEF1
:1011C000CDBFA62E542E622E792E771C7724771C45
:1011D000B72CC72CD12CEE27FF27EC19FD098E2741
:1011E0009F27FC01EC0DFD1D442309F48CC0CE01AA
:1011F00001967C018C0188248A94840E912C9FEFA7
:10120000891A990A8E0C9F1C6AE070E0CF010E9437
:10121000DE0C262FE22FF72F805DD8018D938D01F4
:10122000A815B90589F701E0050DD701A50DB11D78
:101230008EE28C936AE070E0CF010E94DE0C262FD4
:10124000E22FF72F11E0100FD701A00FB11D805D25
:101250008C93012F309771F7611015C0772039F00A
:1012600011E0100FF701E00FF11D8DE28083AA203D
:1012700041F1812F90E02A2D30E0821793070CF581
:10128000B12C40E20CC0AA20A1F0812F90E02A2DC1
:1012900030E02C193D09821793075CF440E31F5F8F
:1012A000F701E80FF91F4083812F90E08217930721
:1012B000B4F3BB2031F0F701E10FF11D8DE2808323
:1012C0001F5F1150F701E10FF11D48EE53E06081FF
:1012D00081E00E948A061111F4CF61960FB6F8944E
:1012E000DEBF0FBECDBFDF91CF911F910F91FF9059
:1012F000EF90DF90CF90BF90AF909F908F907F90B6
:101300006F905F90089500E0CE0101967C0192CF2E
:101310001F920F920FB60F9211240BB60F922F93BC
:101320003F938F939F93AF93BF93EF93FF93E0917E
:1013300071008E2F90E0FC013897E135F105B0F097
:101340008091710080930D0284E080937400FF917E
:10135000EF91BF91AF919F918F913F912F910F90FE
:101360000BBE0F900FBE0F901F901895E55AFF4FC0
:101370000C94110D80914001E0910E02F0910F024A
:10138000E80FF11D80917300808384E980937400DD
:10139000DECF80911002809373001092400185E8A7
:1013A00080937400D4CF80914001909111028917ED
:1013B00060F7E0910E02F0910F0291E0980F909388
:1013C0004001E80FF11D80818093730085E88093D0
:1013D0007400BDCF85EA80937400B9CF209140019D
:1013E0008091110230E090E0019728173907DCF472
:1013F00085EC80937400ABCFE0910E02F0910F0268
:101400008091400121E0280F20934001E80FF11D59
:101410008091730080838091110230E090E0019709
:10142000281739072CF385E88093740090CF8091BA
:101430007400817008959091740090FDFCCF8E7FB0
:101440008093100270930F0260930E02409311027A
:1014500085EA8093740008959091740090FDFCCF0C
:1014600081608093100270930F0260930E0240938C
:10147000110285EA8093740008958FEF80937300C2
:10148000109271008CE08093700008955D9BFECFF8
:101490008CB95D9BFECF0895FC019081992349F0A2
:1014A00031965D9BFECF9CB95D9BFECF91919111D2
:1014B000F8CF08959C01FC014491442369F0019602
:1014C000F90124915D9BFECF2CB95D9BFECF9C0161
:1014D000FC0144914111F3CF08958AB188698AB91A
:1014E000E5E9F0E0808186608083109290008FECC7
:1014F00089B9089580E89EE302C0019721F05F9BBF
:10150000FCCF8CB1089580E0089584E1809362025D
:1015100041E062E672E082E20E941B0A0E94170A22
:101520008111FCCF8FEA94E00197F1F700C0000031
:1015300041E064E872E082E20E942C0A0E94170AED
:101540008111FCCF809184020895809183028823C9
:10155000E1F380E2809362021092630280910001C5
:10156000909101019093640280936502109266024B
:101570001092830245E062E672E082E20E941B0A5A
:1015800085E38A95F1F70000089580E48093620274
:10159000109263028091A9019091AA019093640234
:1015A0008093650210926602109267021092830285
:1015B00046E062E672E082E20E941B0A80918302AA
:1015C0008823E1F30895E2E6F2E080E4808311826B
:1015D0008091D3019091D40192838383148281E01E
:1015E000858346E0BF0182E20E941B0A2FEF87EE4F
:1015F00093E0215080409040E1F700C00000089542
:1016000080911601909117018130910551F100F1FF
:10161000029741F46091D3017091D40185ED91E07E
:101620000E94AF0D6091A80184E591E00E94A20D97
:1016300081E18093620241E062E672E082E20E9410
:101640001B0A87ED94E00197F1F700C000000895B0
:10165000609100017091010185E591E00E94AF0D5C
:10166000E1CF6091A9017091AA018EE891E00E94FA
:10167000AF0DD8CF83E28093620281E08093630252
:1016800042E062E672E082E20E941B0A0E94170AB0
:101690008111FCCF8FEA94E00197F1F700C00000C0
:1016A00048E06BE672E082E20E942C0A0E94170A70
:1016B0008111FCCF089582E28093620281E08093E1
:1016C000630242E062E672E082E20E941B0A0E942C
:1016D000170A8111FCCF8FEA94E00197F1F700C05F
:1016E000000048E06BE672E082E20E942C0A0E9451
:1016F000170A8111FCCF089582E48093620281E091
:101700008093630242E062E672E082E20E941B0A7A
:101710000E94170A8111FCCF8FEA94E00197F1F73C
:1017200000C0000048E06BE672E082E20C942C0AF4
:1017300083E48093620281E08093630242E062E688
:1017400072E082E20E941B0A0E94170A8111FCCFFC
:101750008FEA94E00197F1F700C0000048E06BE6E3
:1017600072E082E20C942C0AE2E6F2E022E12083AD
:101770001182928383837483658346E0BF0182E292
:101780000E941B0A8FE39CE90197F1F700C000005B
:101790000895E2E6F2E081E0808380E5818385E0E0
:1017A000828343E0BF0182E20E941B0A2FEF8BED90
:1017B00095E0215080409040E1F700C0000061E0DA
:1017C00070E081E090E00C94B40B8EE891E00E9410
:1017D0009C0D9093AA018093A90184E591E00E9459
:1017E000940D8093A801E2E6F2E081E0808381E538
:1017F000818385E0828343E0BF0182E20E941B0A6D
:101800002FEF8BED95E0215080409040E1F700C034
:10181000000061E070E081E090E00C94B40B85ED95
:1018200091E00E949C0D9093D4018093D30184E5B4
:1018300091E00E94940D8093A801E2E6F2E081E03D
:10184000808381E5818385E0828343E0BF0182E27A
:101850000E941B0A2FEF8BED95E0215080409040B5
:10186000E1F700C0000060E070E082E093E30E94D6
:10187000B40B61E071E082E091E30E94B40B61E09F
:1018800070E081E090E00C94B40B80EC8093580100
:1018900089EF8093590184EA80935A0180EB809309
:1018A0005B0189E980935C0182E980935D0182E8B4
:1018B00080935E0188EF80935F0180E880936001F0
:1018C00080E98093610180EF87BB87B7816087BF24
:1018D00083B7816083BF80B7886080BF0E94460560
:1018E00085B5896785BD8FEF83BD0E9464050E9421
:1018F00030030E94D9070E943D0A0E946D0A0E948F
:10190000C00578940E9492070E9498078091610018
:101910008F7780936100809162008F77809362005F
:1019200087E487B987E886B91092090241E069E047
:1019300072E080E90E941B0A60E082E00E940D07CD
:101940008FE091E00E94B60765E082E00E940D07FB
:1019500082E191E00E94B607CFEF21C00E941502FC
:101960001ABACBBB88B3806788BB8FE891E0019738
:10197000F1F700C000000E94C70388B38F7888BBCE
:10198000CABB409100015091010160911E018091FC
:101990001F010E94F8000E9415020E9461038091BD
:1019A00057018130D9F667E082E00E940D0784E498
:1019B00091E00E94B60710925701D0CF97FB072EF7
:1019C00016F4009407D077FD09D00E94290D07FC7A
:1019D00005D03EF4909581959F4F0895709561953F
:1019E0007F4F0895052E97FB1EF400940E94090D69
:1019F00057FD07D00E943D0D07FC03D04EF40C9418
:101A0000090D50954095309521953F4F4F4F5F4FB1
:101A1000089590958095709561957F4F8F4F9F4F5A
:101A20000895EE0FFF1F0024001C0BBE0790F691D7
:101A3000E02D0994A29FB001B39FC001A39F700D38
:101A4000811D1124911DB29F700D811D1124911DC6
:101A50000895AA1BBB1B51E107C0AA1FBB1FA617F5
:101A6000B70710F0A61BB70B881F991F5A95A9F747
:101A700080959095BC01CD010895A1E21A2EAA1B74
:101A8000BB1BFD010DC0AA1FBB1FEE1FFF1FA2172E
:101A9000B307E407F50720F0A21BB30BE40BF50B2B
:101AA000661F771F881F991F1A9469F760957095B4
:101AB000809590959B01AC01BD01CF010895BB2796
:101AC0004A3031F4992322F4BDE2909581959F4FDD
:101AD0000C946B0DBB27FB015527AA27880F991F74
:101AE000AA1FA41710F0A41B83955051B9F7A05D4D
:101AF000AA3308F0A95DA193009779F7B111B193CA
:101B00001192CB010C94840DDC01FC01672F7191C3
:101B10007723E1F7329704C07C916D9370836291D3
:101B2000AE17BF07C8F30895E199FECF9FBB8EBBE8
:101B3000E09A99278DB30895A8E1B0E042E050E023
:101B40000C94B60D262FE199FECF9FBB8EBB2DBB0B
:101B50000FB6F894E29AE19A0FBE019608950E949A
:101B6000A20D272F0C94A30DDC01CB01FC01E19900
:101B7000FECF06C0FFBBEEBBE09A31960DB20D92D0
:0C1B800041505040B8F70895F894FFCF92
:101B8C00862980414C41524D002020202020004CC1
:061B9C003A00523A00007D
:00000001FF
