S01100006C6162365F636F64652E73726563B4
S11300000C94AC000C94CB000C94CB000C94CB005F
S11300100C94CB000C94CB000C94CB000C94CB0030
S11300200C94CC050C94CB000C94CB000C94CB001A
S11300300C9482050C94CB000C94CB000C94CB0054
S11300400C94DB050C94CB000C9410050C94CB00A1
S11300500C94CB000C94CB000C94CB000C94CB00F0
S11300600C94CB000C94CB000C94CB000C94CB00E0
S11300700C94CB000C94CB000C94CB000C94CB00D0
S11300800C94CB000C94A6090C94CB00C504C504B5
S1130090C504C504C504C504CA04CA04CD04CD04FA
S11300A0E204D304DF04D604D904DC04D004C70476
S11300B0C704C704C704E709BE09BE09BE09BE09CF
S11300C0BE09BE09BE09E709BE09BE09BE09BE09CB
S11300D0BE09BE09BE09F109BE09BE09BE09BE09B1
S11300E0BE09BE09BE09BE09BE09BE09BE09BE09D4
S11300F0BE09BE09BE09F109BE09BE09BE09BE0991
S1130100BE09BE09BE09BE09BE09BE09BE09BE09B3
S1130110BE09BE09BE09080ABE09BE09BE09BE0958
S1130120BE09BE09BE090C0ABE09BE09BE09BE0944
S1130130BE09BE09BE09BE09BE09BE09BE09BE0983
S1130140BE09BE09BE091A0ABE09BE09BE09BE0916
S1130150BE09BE09BE09D80911241FBECFEFD0E1E4
S1130160DEBFCDBF11E0A0E0B1E0E8ECFBE100E0D0
S11301700BBF02C007900D92A831B107D9F722E056
S1130180A8E1B1E001C01D92A539B207E1F70E94D0
S1130190630C0C94E20D0C940000E1E3F1E0A2EA9C
S11301A0B1E040E050E099B320813181220F331F48
S11301B0306E892F90E0042E02C0959587950A949D
S11301C0E2F781709927822B932B81939193811568
S11301D0904F41F01D924F5F5F4F4830510519F722
S11301E080E00895FA01EE55FE4F81E08083089582
S11301F0FF920F931F93CF93DF93282F8A013DEC37
S1130200639F512D1124569556955695862F4AE095
S1130210549F80191124582FE2E2F1E0838389E28C
S1130220F82E6F9D812D112482958F7044E6849F52
S113023060191124862F90E0851B9109CAE0D0E053
S1130240BE010E94FC0C6283239F512D11245695FC
S113025056955695822F9AE0599F80191124582F4C
S113026081832F9D812D112482958F70849F201965
S11302701124822F90E0851B9109BE010E94FC0C81
S1130280608380911D01839F212D1124269526953D
S11302902695582F9AE0299F5019112457838F9D32
S11302A0912D112492959F70949F8019112490E0B0
S11302B0851B9109BE010E94FC0C668380911E017E
S11302C0839F312D1124369536953695282F9AE043
S11302D0399F2019112425838F9DF12C1124F29428
S11302E09FE0F922F49E8019112490E0821B910969
S11302F0BE010E94FC0C64839801ADECBCEC0E942E
S1130300380DEC01D695C795D695C795D695C79562
S11303109E010E94380D8C01169507951695079538
S113032016950795C801880F991F000F111F000F1C
S1130330111F000F111F080F191FCE01801B910BF5
S11303408C0183873695279536952795ABE7B4E1DD
S11303500E94380D96958795489F9001499F300DCE
S11303601124AE01421B530B9A01201B310BADEC3F
S1130370BCEC0E94380DAC015695479556954795AF
S113038056954795428726EF2403A00111249E0128
S1130390369527953695279536952795A5ECB0E2A1
S11303A00E94380D929582958F7089279F708927B6
S11303B068EE73E0869F9001879F300D969F300D05
S11303C01124CE01821B930B9C01201B310B240FA3
S11303D0351F3695279536952795ABE7B4E10E94EE
S11303E0380D969587958187C01BD10B9E01240FEC
S11303F0351F44E6849F2019310911243695279529
S11304003695279536952795A5ECB0E20E94380DD0
S1130410929582958F7089279F7089278087DF91B5
S1130420CF911F910F91FF90089580910401807ED8
S1130430803409F496C0803809F449C0803219F038
S113044080E688BB0895E0912901F0E0E65AFE4F6A
S113045090819BBB18BAEFE1F3E03197F1F700C04C
S11304600000E0912801F0E0E65AFE4F90819BBB2A
S113047090E198BBEFE1F3E03197F1F700C00000A1
S113048090911A01913009F4DFC008F4BDC0923094
S113049009F4DEC0933049F498EF9BBB88BBEFE1CD
S11304A0F3E03197F1F700C00000E0912701F0E09C
S11304B0E65AFE4F80818BBB80E388BB8FE193E0DB
S11304C00197F1F700C00000E091260144C0E091DB
S11304D02501F0E0E65AFE4F80818BBB18BA8FE10C
S11304E093E00197F1F700C00000E0912401F0E0EF
S11304F0E65AFE4F80818BBB80E188BBEFE1F3E0DD
S11305003197F1F700C0000080911A01813009F49D
S1130510A1C008F48EC0823009F49EC0833051F427
S113052088EF8BBB80E288BBEFE1F3E03197F1F712
S113053000C00000E0912301F0E0E65AFE4F808104
S11305408BBB80E388BB8FE193E00197F1F700C098
S11305500000E0912201F0E0E65AFE4F80818BBB5F
S113056048C0E0912D01F0E0E65AFE4F80818BBB3C
S113057018BA8FE193E00197F1F700C00000E09111
S11305802C01F0E0E65AFE4F80818BBBDF9880E1BE
S113059088BBEFE1F3E03197F1F700C000008091F0
S11305A01A01813009F452C0C8F1823009F456C0EE
S11305B0833051F48BEF8BBB80E288BBEFE1F3E037
S11305C03197F1F700C00000E0912B01F0E0E65A0A
S11305D0FE4F80818BBB80E388BB8FE193E0019762
S11305E0F1F700C00000E0912A01E111B4CF8FEFD0
S11305F08BBB80E488BBEFE1F3E03197F1F700C0F7
S1130600000080E688BB08959CEF9BBB88BB8FE10C
S113061093E00197F1F700C0000047CF8FEF8BBB49
S113062080E288BB8FE193E00197F1F700C00000FE
S1130630CBCF8FEF8BBB80E288BB8FE193E0019738
S1130640F1F700C0000076CF9CEF27CF8FEFB3CF38
S113065098EFDBCF8CEF65CF8BEFECCF8BEFDFCF59
S113066087B3876087BBC09A8A9A82B1806C82B94B
S1130670E1E6F0E0808188608083E2E6F0E080815A
S1130680877F8083C19A8DB180658DB9709A0895F2
S11306901F9A1E981E9A1F981FB8779BFECF8FB182
S11306A0809508951F98179A1A9A8FE193E00197FD
S11306B0F1F700C000001A9890EA9A95F1F717989C
S11306C008950E9448038093D901909143018917AA
S11306D071F1282F23702230A1F4292F2370E9F51A
S11306E02091020130910301245131092A3642E25A
S11306F0340708F040C026E23AE230930301209325
S11307000201282F2C70283091F49C7099F42091C8
S11307108600309187002130304E48F420918600C5
S113072030918700305F3093870020938600809358
S1130730430108959C30D9F72091860030918700B9
S113074021153046A0F32091860030918700305166
S11307503093870020938600EACF233091F62091CE
S11307600201309103012C5E3F4F27324AE23407E5
S113077010F02AE632E23093030120930201282F7D
S11307802C70283011F2D3CF0E94CD00882329F198
S11307908091A901813011F1809104019091A80107
S11307A0913031F19091A701913051F19091A601CE
S11307B0913071F19091A501913009F461C090914B
S11307C0A401913009F451C0807E803409F470C0D2
S11307D0803809F45BC08032B1F10895809104013E
S11307E08F798068809304019091A8019130D1F6AB
S11307F08F758064809304019091A7019130B1F6C4
S11308008F738062809304019091A601913091F6D8
S113081090E189278093040120911A0192E09227A4
S113082090931A01982F907184FF52C0903111F661
S113083060E081E00E942B0785E091E00E94D407EC
S113084080910401B7CF8091A201813009F469C07D
S11308508091A301813009F680911E018F5F883158
S113086009F441C080931E01089592E08927809382
S1130870040181FD3EC00E941E0B80910401A4CF9F
S113088082FF9DCF88608093040199CF8091A2015B
S1130890813009F44EC08091A301813009F09DCFCD
S11308A0809121018F5F883109F18093210108959E
S11308B08091A201813071F18091A301813009F00E
S11308C08CCF86EE98E29093030180930201089501
S11308D060E081E00E942B078BE091E00E94D40746
S11308E08091040167CF10921E0108951092210196
S11308F008958091020190910301909301018093E6
S113090000010E9452030E94E70B0E94C30A8091D7
S113091004015ACF86E899E290930301809302017F
S1130920CBCF80911D018F5F8C3359F080931D01D3
S11309308FCF809120018F5F8C3331F08093200121
S1130940AACF10921D0184CF10922001A4CF369A11
S1130950349BFECF349A24B135B136952795ABE755
S1130960B4E10E94380D9695879590934501809344
S113097044010895E0914401F0914501E531F10508
S113098028F4EA5BFF4F0C942F0D13BC08958FEFEE
S113099083BD089586E083BD08958FE083BD0895E7
S11309A08FED83BD08958FE383BD08958FE783BDE5
S11309B008958FE983BD08958FEB83BD08958FE576
S11309C083BD08958FE183BD089562E082E00E94B3
S11309D02B0742E06DE072E080E90E944A0A0E941F
S11309E015020E941502EDE0F2E0808190E0982F5C
S11309F088272181822B880F892F881F990B919535
S1130A0090938F0180938E014AE062E971E00E9425
S1130A107D0D82E991E00C94D40782E70C94640A7A
S1130A201F920F920FB60F9211240BB60F928F9351
S1130A309F93EF93FF938CB18093DA01E09130019F
S1130A4091E09E0F90933001F0E0EA5BFE4F8083CB
S1130A50811109C081E08093590180E28083818300
S1130A60828310923001FF91EF919F918F910F90AB
S1130A700BBE0F900FBE0F901F90189587B7816023
S1130A8087BF83B7816083BF80B7886080BF0895C4
S1130A908B9A8FB58FBD8EB58B608EBD10927A0008
S1130AA080E590E09BBD8ABD87B78F7E87BF0895A0
S1130AB087B7806187BF089587B78F7E87BF089502
S1130AC085B5896785BD8FEF83BD0895139AEBE8DB
S1130AD0F0E08081826C8083EAE8F0E080818961C3
S1130AE08083ECE8F0E08081808380E090EA90935A
S1130AF087008093860080E090EF9093810080933C
S1130B00800008951F920F920FB60F9211242F9315
S1130B103F938F939F931FBC80912F018F5F80938E
S1130B202F0188E082BB80912F0180FD03C012BA9F
S1130B3080912F0199E2899F912D112492959F70A4
S1130B40382F24E6929F30191124311104C020E873
S1130B5030E03BBD2ABD91E0883C08F490E028E3F6
S1130B60929F800D1124811104C080E590E09BBD0B
S1130B708ABD9F918F913F912F910F900FBE0F903F
S1130B801F901895129A139A1A9A8AB7806C8ABF82
S1130B9089B7806889BF08951F920F920FB60F928C
S1130BA011248F9381E0809385028F910F900FBE63
S1130BB00F901F9018951F920F920FB60F92112449
S1130BC00BB60F922F933F934F935F936F937F9343
S1130BD08F939F93AF93BF93CF93EF93FF93C09162
S1130BE02E01CF5FC0932E010E94A7040E94BA0475
S1130BF08C2F8F73C9F490911A0181E08927809317
S1130C001A01809102019091030120910001309119
S1130C1001012817390741F09093010180930001E5
S1130C208091040181FD78C0CF77A1F0FF91EF910D
S1130C30CF91BF91AF919F918F917F916F915F9170
S1130C404F913F912F910F900BBE0F900FBE0F90BD
S1130C501F90189510922E0180911F018F5F809331
S1130C601F010E94E50482E70E94640A80911F012B
S1130C708C3309F456C0809120018C3309F45BC095
S1130C8080912101883109F460C08091040184FDC0
S1130C9026C0837F8093040187B78F7E87BF8091AE
S1130CA0040183FF0BC090911B019F5F90931B0174
S1130CB08B7F8093040187B78F7E87BF80911B0150
S1130CC08A3009F0B3CF80910401877F84608093D8
S1130CD0040110921B0187B7806187BFA7CF2091C1
S1130CE0210190911E012913DCCF209120019091C4
S1130CF01D012913D6CF20911F0190911C012913A6
S1130D00D0CF84608093040187B7806187BF8091CE
S1130D10040184FDC6CFBDCF0E94C30AC0912E0139
S1130D2083CF10921F01809120018F5F8093200157
S1130D308C3309F0A5CF10922001809121018F5F9F
S1130D4080932101883109F0A0CF109221019DCF19
S1130D5091E0811101C090E09FB9779BFECF6FB9FC
S1130D60779BFECF809162008860809362008091BF
S1130D706200877F809362008FE99FE00197F1F71B
S1130D8000C00000089521E02FB9779BFECF209189
S1130D904101FC01E20FF11D80818FB9779BFECFE9
S1130DA08091620088608093620080916200877FF6
S1130DB080936200809141018F5F80934101803173
S1130DC081F0803209F0089585ED8A95F1F70000ED
S1130DD04CED55E062E080E00E94A80610924101CB
S1130DE0089585ED8A95F1F700004CED55E060EC2F
S1130DF080E00E94A80680914101E3CFEF92FF9228
S1130E000F931F93CF93DF931F92CDB7DEB7182FA5
S1130E10660F660F660F605C48EE53E080E09983CE
S1130E200E94A806E12E9981F92E8701085F1F4FC1
S1130E30F70161917F0144E650E081E00E94A80639
S1130E40E016F106A9F70F90DF91CF911F910F9152
S1130E50FF90EF90089590E4899F600D1124605CE9
S1130E6048EE53E080E00C94A806CF93882309F45D
S1130E703DC0C82F8436A8F48A30F8F48DECC89F9E
S1130E80812D11248695869586956C2F2AE0829F64
S1130E9060191124605D44E650E081E0CF910C9428
S1130EA0A80669E2869F612D112462956F70605DCA
S1130EB044E650E081E00E94A80689E2C89F812DA3
S1130EC0112482958F709C2F24E6829F90191124FF
S1130ED06DEC969F612D1124669566956695605D0F
S1130EE044E650E081E00E94A806C8CF44E650E002
S1130EF060E381E0CF910C94A806CF9387FD03C0F3
S1130F00CF910C943507C82F44E650E06DE281E0A0
S1130F100E94A8068C2F8195CF910C94350748EE3A
S1130F2053E06EE080E00C94A80648EE53E06CE0D9
S1130F3080E00C94A80648EE53E06EE180E00C9447
S1130F40A80648EE53E068E180E00C94A806E2E6C7
S1130F50F0E08081886080838081877F808308952A
S1130F6040ED57E061E080E00C94A8064CED55E0BC
S1130F7062E080E00C94A8064CED55E060EC80E063
S1130F800C94A806CF93C0E144E650E060E281E00F
S1130F900E94A806C150C1F7CF91089544E650E0DD
S1130FA0682F81E00C94A8060F931F93CF938C01B4
S1130FB040E050E0C0E0F801E40FF51F44E650E0E3
S1130FC0608181E00E94A806CF5F4C2F50E0F801B9
S1130FD001900020E9F79F01201B310B22503109B9
S1130FE02417350740F7CF911F910F9108958FEF84
S1130FF099EF0197F1F700C0000088E08093610049
S113100048E55BE160E380E00E94A80648E55BE117
S113101060E380E00E94A80648E55BE160E380E0CD
S11310200E94A80648E853E168E380E00E94A8060D
S113103048E853E168E080E00E94A80648E853E1EC
S113104061E080E00E94A80648E853E166E080E0A1
S11310500E94A80645E050E06CE080E00C94A806ED
S11310608F929F92AF92BF92CF92DF92EF92FF92B4
S11310700F931F93CF93DF93CDB7DEB769970FB666
S1131080F894DEBF0FBECDBFF42E122F002359F00B
S11310904B015C018824B7FC83949924AA24BB24C3
S11310A0082D97FD8DC0112309F482C09E012F5F86
S11310B03F4F6901590188248A94810E912C3FEF96
S11310C0831A930A8C0C9D1C2AE030E040E050E027
S11310D00E94100DE62F2A8B3B8B4C8B5D8B6A890B
S11310E07B898C899D8920E32E0FF50121935F0173
S11310F0E815F90549F7BB24B394B10EF601E10FE5
S1131100F11D2EE220832AE030E040E050E00E940E
S1131110100DE62F2A8B3B8B4C8B5D8B6E8B7F8B5C
S1131120888F998F6A897B898C899D8911E01B0D31
S1131130D601AB0DB11DE05DEC93B12E61157105C7
S11311408105910501F7FF2061F0E11037C080E2CD
S11311501F1538F4F601E10FF11D80831F5F1F1185
S1131160F9CF002331F0F601E10FF11D8DE2808308
S11311701F5F1150F601E10FF11D48EE53E060814D
S113118081E00E94A8061111F4CF69960FB6F89475
S1131190DEBF0FBECDBFDF91CF911F910F91FF90A6
S11311A0EF90DF90CF90BF90AF909F908F90089575
S11311B0B12C9E012F5F3F4F6901A5CF80E3C8CFBB
S11311C090958095709561957F4F8F4F9F4F6BCF12
S11311D05F926F927F928F929F92AF92BF92CF92C3
S11311E0DF92EF92FF920F931F93CF93DF93CDB7CC
S11311F0DEB761970FB6F894DEBF0FBECDBFA62E43
S1131200542E622E792E771C7724771CB72CC72C8A
S1131210D12CEE27FF27EC19FD098E279F27FC010F
S1131220EC0DFD1D442309F48CC0CE0101967C0114
S11312308C0188248A94840E912C9FEF891A990A30
S11312408E0C9F1C6AE070E0CF010E94FC0C262FDC
S1131250E22FF72F805DD8018D938D01A815B90574
S113126089F701E0050DD701A50DB11D8EE28C9320
S11312706AE070E0CF010E94FC0C262FE22FF72FCA
S113128011E0100FD701A00FB11D805D8C93012FC9
S1131290309771F7611015C0772039F011E0100F05
S11312A0F701E00FF11D8DE28083AA2041F1812F27
S11312B090E02A2D30E0821793070CF5B12C40E220
S11312C00CC0AA20A1F0812F90E02A2D30E02C1927
S11312D03D09821793075CF440E31F5FF701E80FB1
S11312E0F91F4083812F90E082179307B4F3BB204A
S11312F031F0F701E10FF11D8DE280831F5F115082
S1131300F701E10FF11D48EE53E0608181E00E9496
S1131310A8061111F4CF61960FB6F894DEBF0FBE84
S1131320CDBFDF91CF911F910F91FF90EF90DF9090
S1131330CF90BF90AF909F908F907F906F905F9071
S1131340089500E0CE0101967C0192CF1F920F9286
S11313500FB60F9211240BB60F922F933F938F93D6
S11313609F93AF93BF93EF93FF93E09171008E2F00
S113137090E0FC013897E135F105B0F080917100FF
S113138080930F0284E080937400FF91EF91BF91EA
S1131390AF919F918F913F912F910F900BBE0F9022
S11313A00FBE0F901F901895E55AFF4F0C942F0D08
S11313B080914201E0911002F0911102E80FF11DB9
S11313C080917300808384E980937400DECF8091E0
S11313D01202809373001092420185E88093740096
S11313E0D4CF8091420190911302891760F7E09164
S11313F01002F091110291E0980F90934201E80FCE
S1131400F11D80818093730085E880937400BDCFC3
S113141085EA80937400B9CF209142018091130230
S113142030E090E0019728173907DCF485EC8093CD
S11314307400ABCFE0911002F0911102809142014F
S113144021E0280F20934201E80FF11D80917300E1
S113145080838091130230E090E0019728173907C8
S11314602CF385E88093740090CF80917400817090
S113147008959091740090FDFCCF8E7F80931202AA
S113148070931102609310024093130285EA8093D3
S1131490740008959091740090FDFCCF8160809356
S11314A0120270931102609310024093130285EAB2
S11314B08093740008958FEF8093730010927100ED
S11314C08CE08093700008955D9BFECF8CB95D9B8A
S11314D0FECF0895FC019081992349F031965D9BDC
S11314E0FECF9CB95D9BFECF91919111F8CF0895E9
S11314F09C01FC014491442369F00196F901249173
S11315005D9BFECF2CB95D9BFECF9C01FC014491F9
S11315104111F3CF08958AB188698AB9E5E9F0E009
S1131520808186608083109290008FEC89B9089541
S113153080E89EE302C0019721F05F9BFCCF8CB151
S1131540089580E0089584E18093640241E064E6B4
S113155072E082E20E94390A0E94350A8111FCCFAE
S11315608FEA94E00197F1F700C0000041E066E8DB
S113157072E082E20E944A0A0E94350A8111FCCF7D
S1131580809186020895809185028823E1F380E2A8
S11315908093640210926502809100019091010190
S11315A090936602809367021092680210928502FB
S11315B045E064E672E082E20E94390A85E38A9596
S11315C0F1F70000089580E48093640210926502AC
S11315D08091AB019091AC01909366028093670275
S11315E010926802109269021092850246E064E645
S11315F072E082E20E94390A809185028823E1F335
S11316000895E4E6F2E080E4808311828091D501BC
S11316109091D60192838383148281E0858346E08E
S1131620BF0182E20E94390A2FEF87EE93E0215036
S113163080409040E1F700C00000089580911801B7
S1131640909119018130910551F100F1029741F413
S11316506091D5017091D60187ED91E00E94CD0D86
S11316606091AA0186E591E00E94C00D81E180931A
S1131670640241E064E672E082E20E94390A87ED86
S113168094E00197F1F700C0000008956091000113
S11316907091010187E591E00E94CD0DE1CF609149
S11316A0AB017091AC0180E991E00E94CD0DD8CFDF
S11316B083E28093640281E08093650242E064E601
S11316C072E082E20E94390A0E94350A8111FCCF3D
S11316D08FEA94E00197F1F700C0000048E06DE65E
S11316E072E082E20E944A0A0E94350A8111FCCF0C
S11316F0089582E28093640281E08093650242E06F
S113170064E672E082E20E94390A0E94350A81117D
S1131710FCCF8FEA94E00197F1F700C0000048E0A5
S11317206DE672E082E20E944A0A0E94350A811143
S1131730FCCF089582E48093640281E08093650283
S113174042E064E672E082E20E94390A0E94350AAD
S11317508111FCCF8FEA94E00197F1F700C00000FB
S113176048E06DE672E082E20C944A0A83E48093D6
S1131770640281E08093650242E064E672E082E202
S11317800E94390A0E94350A8111FCCF8FEA94E045
S11317900197F1F700C0000048E06DE672E082E2D4
S11317A00C944A0AE4E6F2E022E120831182928357
S11317B083837483658346E0BF0182E20E94390A11
S11317C08FE39CE90197F1F700C000000895E4E677
S11317D0F2E081E0808380E5818385E0828343E0D9
S11317E0BF0182E20E94390A2FEF8BED95E0215070
S11317F080409040E1F700C0000061E070E081E0CB
S113180090E00C94D20B80E991E00E94BA0D909381
S1131810AC018093AB0186E591E00E94B20D809308
S1131820AA01E4E6F2E081E0808381E5818385E03A
S1131830828343E0BF0182E20E94390A2FEF8BEDDD
S113184095E0215080409040E1F700C0000061E045
S113185070E081E090E00C94D20B87ED91E00E945F
S1131860BA0D9093D6018093D50186E591E00E944C
S1131870B20D8093AA01E4E6F2E081E0808381E581
S1131880818385E0828343E0BF0182E20E94390ABA
S11318902FEF8BED95E0215080409040E1F700C0A0
S11318A0000060E070E082E093E30E94D20B61E00C
S11318B071E082E091E30E94D20B61E070E081E08C
S11318C090E00C94D20B80EC80935A0189EF8093C2
S11318D05B0184EA80935C0180EB80935D0189E97C
S11318E080935E0182E980935F0182E880936001C6
S11318F088EF8093610180E88093620180E980939E
S1131900630180EF87BB87B7816087BF83B781603E
S113191083BF80B7886080BF0E94480585B589670A
S113192085BD8FEF83BD0E9466050E9430030E942F
S1131930F7070E945B0A0E948B0A0E94C2057894F2
S11319400E94B0070E94B607809161008F77809350
S11319506100809162008F778093620087E487B989
S113196087E886B910920B0241E06BE072E080E9EF
S11319700E94390A60E082E00E942B0781E191E035
S11319800E94D40765E082E00E942B0784E191E085
S11319900E94D407CFEF21C00E9415021ABACBBB14
S11319A088B3806788BB8FE891E00197F1F700C0A6
S11319B000000E94C40388B38F7888BBCABB4091DF
S11319C000015091010160912001809121010E9448
S11319D0F8000E9415020E94610380915901813030
S11319E0D9F667E082E00E942B0786E491E00E942A
S11319F0D40710925901D0CF97FB072E16F4009408
S1131A0007D077FD09D00E94470D07FC05D03EF4AE
S1131A10909581959F4F0895709561957F4F089596
S1131A20052E97FB1EF400940E94270D57FD07D046
S1131A300E945B0D07FC03D04EF40C94270D5095C7
S1131A404095309521953F4F4F4F5F4F08959095A6
S1131A508095709561957F4F8F4F9F4F0895EE0F3E
S1131A60FF1F0024001C0BBE0790F691E02D099483
S1131A70A29FB001B39FC001A39F700D811D1124CB
S1131A80911DB29F700D811D1124911D0895AA1BF3
S1131A90BB1B51E107C0AA1FBB1FA617B70710F055
S1131AA0A61BB70B881F991F5A95A9F78095909587
S1131AB0BC01CD010895A1E21A2EAA1BBB1BFD0196
S1131AC00DC0AA1FBB1FEE1FFF1FA217B307E40719
S1131AD0F50720F0A21BB30BE40BF50B661F771F71
S1131AE0881F991F1A9469F7609570958095909551
S1131AF09B01AC01BD01CF010895BB274A3031F4ED
S1131B00992322F4BDE2909581959F4F0C94890D01
S1131B10BB27FB015527AA27880F991FAA1FA417C3
S1131B2010F0A41B83955051B9F7A05DAA3308F0B7
S1131B30A95DA193009779F7B111B1931192CB01EB
S1131B400C94A20DDC01FC01672F71917723E1F75E
S1131B50329704C07C916D9370836291AE17BF0776
S1131B60C8F30895E199FECF9FBB8EBBE09A9927F5
S1131B708DB30895A8E1B0E042E050E00C94D40D98
S1131B80262FE199FECF9FBB8EBB2DBB0FB6F894D9
S1131B90E29AE19A0FBE019608950E94C00D272F84
S1131BA00C94C10DDC01CB01FC01E199FECF06C010
S1131BB0FFBBEEBBE09A31960DB20D9241505040FE
S10B1BC0B8F70895F894FFCF73
S1131BC88629862980414C41524D0020202020201E
S10B1BD8004C3A00523A0000EF
S9030000FC
